{
  "_format": "hh-sol-artifact-1",
  "contractName": "Fairground",
  "sourceName": "contracts/Fairground.sol",
  "abi": [
    {
      "anonymous": false,
      "inputs": [
        {
          "indexed": true,
          "internalType": "uint256",
          "name": "_id",
          "type": "uint256"
        },
        {
          "indexed": true,
          "internalType": "address",
          "name": "_from",
          "type": "address"
        },
        {
          "indexed": false,
          "internalType": "uint256",
          "name": "_value",
          "type": "uint256"
        }
      ],
      "name": "LogBid",
      "type": "event"
    },
    {
      "anonymous": false,
      "inputs": [
        {
          "indexed": true,
          "internalType": "uint256",
          "name": "_id",
          "type": "uint256"
        },
        {
          "indexed": true,
          "internalType": "address",
          "name": "_from",
          "type": "address"
        },
        {
          "indexed": false,
          "internalType": "uint256",
          "name": "_value",
          "type": "uint256"
        }
      ],
      "name": "LogReserve",
      "type": "event"
    },
    {
      "stateMutability": "nonpayable",
      "type": "fallback"
    },
    {
      "inputs": [
        {
          "internalType": "uint256",
          "name": "tokenId",
          "type": "uint256"
        }
      ],
      "name": "activeBid",
      "outputs": [
        {
          "internalType": "uint256",
          "name": "",
          "type": "uint256"
        }
      ],
      "stateMutability": "view",
      "type": "function"
    },
    {
      "inputs": [
        {
          "internalType": "uint256",
          "name": "tokenId",
          "type": "uint256"
        }
      ],
      "name": "activeReserve",
      "outputs": [
        {
          "internalType": "uint256",
          "name": "",
          "type": "uint256"
        }
      ],
      "stateMutability": "view",
      "type": "function"
    },
    {
      "inputs": [
        {
          "internalType": "uint256",
          "name": "tokenId",
          "type": "uint256"
        }
      ],
      "name": "auctionEndDate",
      "outputs": [
        {
          "internalType": "uint256",
          "name": "",
          "type": "uint256"
        }
      ],
      "stateMutability": "view",
      "type": "function"
    },
    {
      "inputs": [],
      "name": "communityFunds",
      "outputs": [
        {
          "internalType": "uint256",
          "name": "",
          "type": "uint256"
        }
      ],
      "stateMutability": "view",
      "type": "function"
    },
    {
      "inputs": [
        {
          "internalType": "uint256",
          "name": "tokenId",
          "type": "uint256"
        }
      ],
      "name": "currentBid",
      "outputs": [
        {
          "internalType": "uint256",
          "name": "",
          "type": "uint256"
        }
      ],
      "stateMutability": "view",
      "type": "function"
    },
    {
      "inputs": [
        {
          "internalType": "uint256",
          "name": "tokenId",
          "type": "uint256"
        }
      ],
      "name": "increaseReserve",
      "outputs": [],
      "stateMutability": "payable",
      "type": "function"
    },
    {
      "inputs": [
        {
          "internalType": "uint256",
          "name": "tokenId",
          "type": "uint256"
        }
      ],
      "name": "isAuctionExpired",
      "outputs": [
        {
          "internalType": "bool",
          "name": "",
          "type": "bool"
        }
      ],
      "stateMutability": "view",
      "type": "function"
    },
    {
      "inputs": [
        {
          "internalType": "uint256",
          "name": "tokenId",
          "type": "uint256"
        }
      ],
      "name": "isOwner",
      "outputs": [
        {
          "internalType": "bool",
          "name": "",
          "type": "bool"
        }
      ],
      "stateMutability": "view",
      "type": "function"
    },
    {
      "inputs": [
        {
          "internalType": "uint256",
          "name": "tokenId",
          "type": "uint256"
        }
      ],
      "name": "isRentPeriodExpired",
      "outputs": [
        {
          "internalType": "bool",
          "name": "",
          "type": "bool"
        }
      ],
      "stateMutability": "view",
      "type": "function"
    },
    {
      "inputs": [
        {
          "internalType": "address",
          "name": "to",
          "type": "address"
        }
      ],
      "name": "mint",
      "outputs": [],
      "stateMutability": "nonpayable",
      "type": "function"
    },
    {
      "inputs": [
        {
          "internalType": "uint256",
          "name": "tokenId",
          "type": "uint256"
        }
      ],
      "name": "ownerOf",
      "outputs": [
        {
          "internalType": "address",
          "name": "",
          "type": "address"
        }
      ],
      "stateMutability": "view",
      "type": "function"
    },
    {
      "inputs": [
        {
          "internalType": "uint256",
          "name": "tokenId",
          "type": "uint256"
        }
      ],
      "name": "placeBid",
      "outputs": [],
      "stateMutability": "payable",
      "type": "function"
    },
    {
      "inputs": [
        {
          "internalType": "uint256",
          "name": "tokenId",
          "type": "uint256"
        }
      ],
      "name": "propertyDetail",
      "outputs": [
        {
          "components": [
            {
              "internalType": "uint256",
              "name": "id",
              "type": "uint256"
            },
            {
              "internalType": "uint256",
              "name": "currentBid",
              "type": "uint256"
            },
            {
              "internalType": "uint256",
              "name": "auctionEnd",
              "type": "uint256"
            },
            {
              "internalType": "uint256",
              "name": "rentReset",
              "type": "uint256"
            },
            {
              "internalType": "address",
              "name": "owner",
              "type": "address"
            },
            {
              "internalType": "address",
              "name": "recordedOwner",
              "type": "address"
            },
            {
              "internalType": "address",
              "name": "topBidder",
              "type": "address"
            },
            {
              "internalType": "uint256",
              "name": "timestamp",
              "type": "uint256"
            }
          ],
          "internalType": "struct Fairground.PropertyDetails",
          "name": "",
          "type": "tuple"
        }
      ],
      "stateMutability": "view",
      "type": "function"
    },
    {
      "inputs": [
        {
          "internalType": "uint256",
          "name": "pageNumber",
          "type": "uint256"
        },
        {
          "internalType": "uint256",
          "name": "pageSize",
          "type": "uint256"
        }
      ],
      "name": "propertyList",
      "outputs": [
        {
          "components": [
            {
              "internalType": "uint256",
              "name": "id",
              "type": "uint256"
            },
            {
              "internalType": "uint256",
              "name": "currentBid",
              "type": "uint256"
            },
            {
              "internalType": "uint256",
              "name": "auctionEnd",
              "type": "uint256"
            },
            {
              "internalType": "uint256",
              "name": "rentReset",
              "type": "uint256"
            },
            {
              "internalType": "address",
              "name": "owner",
              "type": "address"
            },
            {
              "internalType": "address",
              "name": "recordedOwner",
              "type": "address"
            },
            {
              "internalType": "address",
              "name": "topBidder",
              "type": "address"
            },
            {
              "internalType": "uint256",
              "name": "timestamp",
              "type": "uint256"
            }
          ],
          "internalType": "struct Fairground.PropertyDetails[]",
          "name": "",
          "type": "tuple[]"
        }
      ],
      "stateMutability": "view",
      "type": "function"
    },
    {
      "inputs": [
        {
          "internalType": "uint256",
          "name": "tokenId",
          "type": "uint256"
        }
      ],
      "name": "rentalPeriodEndDate",
      "outputs": [
        {
          "internalType": "uint256",
          "name": "",
          "type": "uint256"
        }
      ],
      "stateMutability": "view",
      "type": "function"
    },
    {
      "inputs": [
        {
          "internalType": "uint256",
          "name": "tokenId",
          "type": "uint256"
        },
        {
          "internalType": "uint256",
          "name": "target",
          "type": "uint256"
        }
      ],
      "name": "targetBid",
      "outputs": [
        {
          "internalType": "uint256",
          "name": "",
          "type": "uint256"
        }
      ],
      "stateMutability": "view",
      "type": "function"
    },
    {
      "inputs": [
        {
          "internalType": "uint256",
          "name": "tokenId",
          "type": "uint256"
        }
      ],
      "name": "topBid",
      "outputs": [
        {
          "internalType": "uint256",
          "name": "",
          "type": "uint256"
        }
      ],
      "stateMutability": "view",
      "type": "function"
    },
    {
      "inputs": [
        {
          "internalType": "uint256",
          "name": "tokenId",
          "type": "uint256"
        }
      ],
      "name": "topBidder",
      "outputs": [
        {
          "internalType": "address",
          "name": "",
          "type": "address"
        }
      ],
      "stateMutability": "view",
      "type": "function"
    },
    {
      "inputs": [],
      "name": "totalSupply",
      "outputs": [
        {
          "internalType": "uint256",
          "name": "",
          "type": "uint256"
        }
      ],
      "stateMutability": "view",
      "type": "function"
    },
    {
      "inputs": [
        {
          "internalType": "uint256",
          "name": "tokenId",
          "type": "uint256"
        }
      ],
      "name": "updateClaim",
      "outputs": [],
      "stateMutability": "nonpayable",
      "type": "function"
    }
  ],
  "bytecode": "0x6080604052600060015534801561001557600080fd5b50612430806100256000396000f3fe6080604052600436106101235760003560e01c80635caef00a116100a05780637dc2b17c116100645780637dc2b17c146104e55780639979ef4514610522578063ce0fe6961461053e578063e6fa4cf81461057b578063f5752f59146105b857610124565b80635caef00a146103da5780635e1ff1e5146104055780636352211e146104425780636a6278421461047f5780637af51f49146104a857610124565b80633c7cfe34116100e75780633c7cfe34146102a95780633d61a169146102e65780634794cf71146103235780634bece48e146103605780634bf9a0221461039d57610124565b806312b3368d146101bf5780631389b117146101e857806318160ddd146102255780631fbf7c3e1461025057806339c7639c1461026c57610124565b5b34801561013057600080fd5b5061016f6040518060400160405280601f81526020017f4661697267726f756e642066616c6c6261636b2063616c6c65642077697468008152506105f5565b6101bd6000368080601f016020809104026020016040519081016040528093929190818152602001838380828437600081840152601f19601f8201169050808301925050505050505061068e565b005b3480156101cb57600080fd5b506101e660048036038101906101e1919061190a565b610727565b005b3480156101f457600080fd5b5061020f600480360381019061020a919061190a565b6107b0565b60405161021c9190611952565b60405180910390f35b34801561023157600080fd5b5061023a6107c4565b604051610247919061197c565b60405180910390f35b61026a6004803603810190610265919061190a565b6107d5565b005b34801561027857600080fd5b50610293600480360381019061028e919061190a565b61092a565b6040516102a09190611952565b60405180910390f35b3480156102b557600080fd5b506102d060048036038101906102cb919061190a565b61096a565b6040516102dd919061197c565b60405180910390f35b3480156102f257600080fd5b5061030d6004803603810190610308919061190a565b61098d565b60405161031a919061197c565b60405180910390f35b34801561032f57600080fd5b5061034a6004803603810190610345919061190a565b6109b4565b6040516103579190611952565b60405180910390f35b34801561036c57600080fd5b5061038760048036038101906103829190611997565b6109d3565b6040516103949190611b79565b60405180910390f35b3480156103a957600080fd5b506103c460048036038101906103bf919061190a565b610b92565b6040516103d19190611c3d565b60405180910390f35b3480156103e657600080fd5b506103ef610c78565b6040516103fc919061197c565b60405180910390f35b34801561041157600080fd5b5061042c6004803603810190610427919061190a565b610c8d565b6040516104399190611c68565b60405180910390f35b34801561044e57600080fd5b506104696004803603810190610464919061190a565b610cdf565b6040516104769190611c68565b60405180910390f35b34801561048b57600080fd5b506104a660048036038101906104a19190611caf565b610dcf565b005b3480156104b457600080fd5b506104cf60048036038101906104ca9190611997565b610e37565b6040516104dc919061197c565b60405180910390f35b3480156104f157600080fd5b5061050c6004803603810190610507919061190a565b610eda565b604051610519919061197c565b60405180910390f35b61053c6004803603810190610537919061190a565b610ef7565b005b34801561054a57600080fd5b506105656004803603810190610560919061190a565b611033565b604051610572919061197c565b60405180910390f35b34801561058757600080fd5b506105a2600480360381019061059d919061190a565b611050565b6040516105af919061197c565b60405180910390f35b3480156105c457600080fd5b506105df60048036038101906105da919061190a565b611114565b6040516105ec919061197c565b60405180910390f35b61068b816040516024016106099190611d75565b6040516020818303038152906040527f41304fac000000000000000000000000000000000000000000000000000000007bffffffffffffffffffffffffffffffffffffffffffffffffffffffff19166020820180517bffffffffffffffffffffffffffffffffffffffffffffffffffffffff83818316178352505050506111a1565b50565b610724816040516024016106a29190611dec565b6040516020818303038152906040527f0be77f56000000000000000000000000000000000000000000000000000000007bffffffffffffffffffffffffffffffffffffffffffffffffffffffff19166020820180517bffffffffffffffffffffffffffffffffffffffffffffffffffffffff83818316178352505050506111a1565b50565b600061073282610cdf565b905060006007600084815260200190815260200160002060009054906101000a900473ffffffffffffffffffffffffffffffffffffffff1690508073ffffffffffffffffffffffffffffffffffffffff168273ffffffffffffffffffffffffffffffffffffffff16146107ab576107aa8383836111ca565b5b505050565b60006107bb82610eda565b42119050919050565b60006107d0600061124d565b905090565b806107df8161092a565b61081e576040517f08c379a000000000000000000000000000000000000000000000000000000000815260040161081590611e5a565b60405180910390fd5b60003411610861576040517f08c379a000000000000000000000000000000000000000000000000000000000815260040161085890611ec6565b60405180910390fd5b61086a8261096a565b6108738361125b565b10156108b4576040517f08c379a00000000000000000000000000000000000000000000000000000000081526004016108ab90611f32565b60405180910390fd5b6108bd82610727565b6108cf826108ca8461125b565b611280565b3373ffffffffffffffffffffffffffffffffffffffff16827f64729b881431943010ef1cccb6f412e7d424a8be1a96b107d01126f0bf3261d86109118561125b565b60405161091e919061197c565b60405180910390a35050565b600061093582610cdf565b73ffffffffffffffffffffffffffffffffffffffff163373ffffffffffffffffffffffffffffffffffffffff16149050919050565b60006109866109788361098d565b61098184611050565b6112ea565b9050919050565b6000610998826107b0565b6109aa576109a582611114565b6109ad565b60005b9050919050565b6000600560008381526020019081526020016000205442119050919050565b606060006109e1600061124d565b11610a21576040517f08c379a0000000000000000000000000000000000000000000000000000000008152600401610a1890611f9e565b60405180910390fd5b600082600185610a319190611fed565b610a3b9190612021565b90506001610a49600061124d565b610a539190611fed565b811115610a95576040517f08c379a0000000000000000000000000000000000000000000000000000000008152600401610a8c906120c7565b60405180910390fd5b6000610aa1600061124d565b8483610aad91906120e7565b1115610acd5781610abe600061124d565b610ac89190611fed565b610acf565b835b905060008167ffffffffffffffff811115610aed57610aec61213d565b5b604051908082528060200260200182016040528015610b2657816020015b610b13611848565b815260200190600190039081610b0b5790505b50905060005b82811015610b8557610b5460018286610b4591906120e7565b610b4f91906120e7565b610b92565b828281518110610b6757610b6661216c565b5b60200260200101819052508080610b7d9061219b565b915050610b2c565b5080935050505092915050565b610b9a611848565b604051806101000160405280838152602001610bb58461096a565b8152602001610bc384610eda565b8152602001610bd184611033565b8152602001610bdf84610cdf565b73ffffffffffffffffffffffffffffffffffffffff1681526020016007600085815260200190815260200160002060009054906101000a900473ffffffffffffffffffffffffffffffffffffffff1673ffffffffffffffffffffffffffffffffffffffff168152602001610c5284610c8d565b73ffffffffffffffffffffffffffffffffffffffff168152602001428152509050919050565b600060015447610c889190611fed565b905090565b6000610c98826107b0565b610cd5576003600083815260200190815260200160002060009054906101000a900473ffffffffffffffffffffffffffffffffffffffff16610cd8565b60005b9050919050565b6000610cea826107b0565b8015610d565750600073ffffffffffffffffffffffffffffffffffffffff166003600084815260200190815260200160002060009054906101000a900473ffffffffffffffffffffffffffffffffffffffff1673ffffffffffffffffffffffffffffffffffffffff1614155b610d93576007600083815260200190815260200160002060009054906101000a900473ffffffffffffffffffffffffffffffffffffffff16610dc8565b6003600083815260200190815260200160002060009054906101000a900473ffffffffffffffffffffffffffffffffffffffff165b9050919050565b610dd96000611304565b8060076000610de8600061124d565b815260200190815260200160002060006101000a81548173ffffffffffffffffffffffffffffffffffffffff021916908373ffffffffffffffffffffffffffffffffffffffff16021790555050565b600080610e438461092a565b610e4e576000610e58565b610e5784611050565b5b9050808311610e6b576000915050610ed4565b6000601460ff168285610e7e9190611fed565b610e889190612213565b9050610e938561092a565b610ea8578184610ea39190611fed565b610ecf565b601460ff16818386610eba9190611fed565b610ec49190611fed565b610ece9190612213565b5b925050505b92915050565b600060046000838152602001908152602001600020549050919050565b80610f018161092a565b15610f41576040517f08c379a0000000000000000000000000000000000000000000000000000000008152600401610f3890612290565b60405180910390fd5b60003411610f84576040517f08c379a0000000000000000000000000000000000000000000000000000000008152600401610f7b90611ec6565b60405180910390fd5b610f8d8261096a565b3411610fce576040517f08c379a0000000000000000000000000000000000000000000000000000000008152600401610fc5906122fc565b60405180910390fd5b610fd782610727565b610fe08261131a565b3373ffffffffffffffffffffffffffffffffffffffff16827fa1818edb3ef6a5a8e13a8a974ad182890a4dcad68dd5f73ee12a66e16b767ddb34604051611027919061197c565b60405180910390a35050565b600060056000838152602001908152602001600020549050919050565b6000806007600084815260200190815260200160002060009054906101000a900473ffffffffffffffffffffffffffffffffffffffff1673ffffffffffffffffffffffffffffffffffffffff166110a684610cdf565b73ffffffffffffffffffffffffffffffffffffffff16141590506000816110ce5760006110d8565b6110d784611114565b5b90506110e3846109b4565b611109576111048160066000878152602001908152602001600020546112ea565b61110b565b805b92505050919050565b6000600260006003600085815260200190815260200160002060009054906101000a900473ffffffffffffffffffffffffffffffffffffffff1673ffffffffffffffffffffffffffffffffffffffff1673ffffffffffffffffffffffffffffffffffffffff1681526020019081526020016000206000838152602001908152602001600020549050919050565b60008151905060006a636f6e736f6c652e6c6f679050602083016000808483855afa5050505050565b60006111d584611114565b90506111e2848484611338565b826007600086815260200190815260200160002060006101000a81548173ffffffffffffffffffffffffffffffffffffffff021916908373ffffffffffffffffffffffffffffffffffffffff16021790555061123e8482611280565b61124784611577565b50505050565b600081600001549050919050565b600061126682611050565b61126f346115a7565b61127991906120e7565b9050919050565b8060066000848152602001908152602001600020819055506003600083815260200190815260200160002060006101000a81549073ffffffffffffffffffffffffffffffffffffffff02191690556112d7826109b4565b156112e6576112e582611577565b5b5050565b6000818310156112fa57816112fc565b825b905092915050565b6001816000016000828254019250508190555050565b611323816115f8565b61132c8161163f565b61133581611702565b50565b6003600084815260200190815260200160002060009054906101000a900473ffffffffffffffffffffffffffffffffffffffff1673ffffffffffffffffffffffffffffffffffffffff168273ffffffffffffffffffffffffffffffffffffffff16146113d9576040517f08c379a00000000000000000000000000000000000000000000000000000000081526004016113d090612368565b60405180910390fd5b6000600260008473ffffffffffffffffffffffffffffffffffffffff1673ffffffffffffffffffffffffffffffffffffffff1681526020019081526020016000206000858152602001908152602001600020549050600081141561143d5750611572565b806001600082825461144f9190611fed565b92505081905550600260008473ffffffffffffffffffffffffffffffffffffffff1673ffffffffffffffffffffffffffffffffffffffff1681526020019081526020016000206000858152602001908152602001600020600090556003600085815260200190815260200160002060006101000a81549073ffffffffffffffffffffffffffffffffffffffff021916905560008273ffffffffffffffffffffffffffffffffffffffff168473ffffffffffffffffffffffffffffffffffffffff16146115245761151f8583611731565b611526565b815b90508273ffffffffffffffffffffffffffffffffffffffff166108fc829081150290604051600060405180830381858888f1935050505015801561156e573d6000803e3d6000fd5b5050505b505050565b61025865ffffffffffff164261158d91906120e7565b600560008381526020019081526020016000208190555050565b600080601460646115b89190612395565b60646115c491906123c6565b60ff169050601460ff16606482856115dc9190612213565b6115e69190612021565b6115f09190612021565b915050919050565b60006003600083815260200190815260200160002060009054906101000a900473ffffffffffffffffffffffffffffffffffffffff16905061163b828283611338565b5050565b346001600082825461165191906120e7565b9250508190555034600260003373ffffffffffffffffffffffffffffffffffffffff1673ffffffffffffffffffffffffffffffffffffffff168152602001908152602001600020600083815260200190815260200160002081905550336003600083815260200190815260200160002060006101000a81548173ffffffffffffffffffffffffffffffffffffffff021916908373ffffffffffffffffffffffffffffffffffffffff16021790555050565b60b465ffffffffffff164261171791906120e7565b600460008381526020019081526020016000208190555050565b600080601460ff16836117449190612213565b905061174f8461176e565b818461175b9190611fed565b61176591906120e7565b91505092915050565b60008061177a836117e9565b9050600081148061179e575060006006600085815260200190815260200160002054145b6117de576117d98161025865ffffffffffff16601460ff1660066000888152602001908152602001600020546117d49190612213565b611826565b6117e1565b60005b915050919050565b60006117f4826109b4565b61181c574260056000848152602001908152602001600020546118179190611fed565b61181f565b60005b9050919050565b60008282856118359190612021565b61183f9190612213565b90509392505050565b60405180610100016040528060008152602001600081526020016000815260200160008152602001600073ffffffffffffffffffffffffffffffffffffffff168152602001600073ffffffffffffffffffffffffffffffffffffffff168152602001600073ffffffffffffffffffffffffffffffffffffffff168152602001600081525090565b600080fd5b6000819050919050565b6118e7816118d4565b81146118f257600080fd5b50565b600081359050611904816118de565b92915050565b6000602082840312156119205761191f6118cf565b5b600061192e848285016118f5565b91505092915050565b60008115159050919050565b61194c81611937565b82525050565b60006020820190506119676000830184611943565b92915050565b611976816118d4565b82525050565b6000602082019050611991600083018461196d565b92915050565b600080604083850312156119ae576119ad6118cf565b5b60006119bc858286016118f5565b92505060206119cd858286016118f5565b9150509250929050565b600081519050919050565b600082825260208201905092915050565b6000819050602082019050919050565b611a0c816118d4565b82525050565b600073ffffffffffffffffffffffffffffffffffffffff82169050919050565b6000611a3d82611a12565b9050919050565b611a4d81611a32565b82525050565b61010082016000820151611a6a6000850182611a03565b506020820151611a7d6020850182611a03565b506040820151611a906040850182611a03565b506060820151611aa36060850182611a03565b506080820151611ab66080850182611a44565b5060a0820151611ac960a0850182611a44565b5060c0820151611adc60c0850182611a44565b5060e0820151611aef60e0850182611a03565b50505050565b6000611b018383611a53565b6101008301905092915050565b6000602082019050919050565b6000611b26826119d7565b611b3081856119e2565b9350611b3b836119f3565b8060005b83811015611b6c578151611b538882611af5565b9750611b5e83611b0e565b925050600181019050611b3f565b5085935050505092915050565b60006020820190508181036000830152611b938184611b1b565b905092915050565b61010082016000820151611bb26000850182611a03565b506020820151611bc56020850182611a03565b506040820151611bd86040850182611a03565b506060820151611beb6060850182611a03565b506080820151611bfe6080850182611a44565b5060a0820151611c1160a0850182611a44565b5060c0820151611c2460c0850182611a44565b5060e0820151611c3760e0850182611a03565b50505050565b600061010082019050611c536000830184611b9b565b92915050565b611c6281611a32565b82525050565b6000602082019050611c7d6000830184611c59565b92915050565b611c8c81611a32565b8114611c9757600080fd5b50565b600081359050611ca981611c83565b92915050565b600060208284031215611cc557611cc46118cf565b5b6000611cd384828501611c9a565b91505092915050565b600081519050919050565b600082825260208201905092915050565b60005b83811015611d16578082015181840152602081019050611cfb565b83811115611d25576000848401525b50505050565b6000601f19601f8301169050919050565b6000611d4782611cdc565b611d518185611ce7565b9350611d61818560208601611cf8565b611d6a81611d2b565b840191505092915050565b60006020820190508181036000830152611d8f8184611d3c565b905092915050565b600081519050919050565b600082825260208201905092915050565b6000611dbe82611d97565b611dc88185611da2565b9350611dd8818560208601611cf8565b611de181611d2b565b840191505092915050565b60006020820190508181036000830152611e068184611db3565b905092915050565b7f4d75737420626520746865206f776e6572000000000000000000000000000000600082015250565b6000611e44601183611ce7565b9150611e4f82611e0e565b602082019050919050565b60006020820190508181036000830152611e7381611e37565b9050919050565b7f4d7573742062652067726561746572207468616e203000000000000000000000600082015250565b6000611eb0601683611ce7565b9150611ebb82611e7a565b602082019050919050565b60006020820190508181036000830152611edf81611ea3565b9050919050565b7f5265736572766520746f6f206c6f770000000000000000000000000000000000600082015250565b6000611f1c600f83611ce7565b9150611f2782611ee6565b602082019050919050565b60006020820190508181036000830152611f4b81611f0f565b9050919050565b7f4e6f2070726f7065727469657320666f756e6400000000000000000000000000600082015250565b6000611f88601383611ce7565b9150611f9382611f52565b602082019050919050565b60006020820190508181036000830152611fb781611f7b565b9050919050565b7f4e487b7100000000000000000000000000000000000000000000000000000000600052601160045260246000fd5b6000611ff8826118d4565b9150612003836118d4565b92508282101561201657612015611fbe565b5b828203905092915050565b600061202c826118d4565b9150612037836118d4565b9250817fffffffffffffffffffffffffffffffffffffffffffffffffffffffffffffffff04831182151516156120705761206f611fbe565b5b828202905092915050565b7f4f7574206f662072616e67650000000000000000000000000000000000000000600082015250565b60006120b1600c83611ce7565b91506120bc8261207b565b602082019050919050565b600060208201905081810360008301526120e0816120a4565b9050919050565b60006120f2826118d4565b91506120fd836118d4565b9250827fffffffffffffffffffffffffffffffffffffffffffffffffffffffffffffffff0382111561213257612131611fbe565b5b828201905092915050565b7f4e487b7100000000000000000000000000000000000000000000000000000000600052604160045260246000fd5b7f4e487b7100000000000000000000000000000000000000000000000000000000600052603260045260246000fd5b60006121a6826118d4565b91507fffffffffffffffffffffffffffffffffffffffffffffffffffffffffffffffff8214156121d9576121d8611fbe565b5b600182019050919050565b7f4e487b7100000000000000000000000000000000000000000000000000000000600052601260045260246000fd5b600061221e826118d4565b9150612229836118d4565b925082612239576122386121e4565b5b828204905092915050565b7f4d757374206e6f7420626520746865206f776e65720000000000000000000000600082015250565b600061227a601583611ce7565b915061228582612244565b602082019050919050565b600060208201905081810360008301526122a98161226d565b9050919050565b7f42696420746f6f206c6f77000000000000000000000000000000000000000000600082015250565b60006122e6600b83611ce7565b91506122f1826122b0565b602082019050919050565b60006020820190508181036000830152612315816122d9565b9050919050565b7f4d7573742077697468647261772066726f6d20746f7020626964646572000000600082015250565b6000612352601d83611ce7565b915061235d8261231c565b602082019050919050565b6000602082019050818103600083015261238181612345565b9050919050565b600060ff82169050919050565b60006123a082612388565b91506123ab83612388565b9250826123bb576123ba6121e4565b5b828204905092915050565b60006123d182612388565b91506123dc83612388565b9250828210156123ef576123ee611fbe565b5b82820390509291505056fea26469706673582212209e56bde891a889b812cbb0ca07b255408d9e6f2920b0012666224a84fd0c277764736f6c63430008090033",
  "linkReferences": {},
  "deployedLinkReferences": {}
}